:100000000C9471000C9490000C9490000C9490004F
:100010000C9490000C94E4020C9490000C949000CA
:100020000C9490000C9490000C9490000C94900010
:100030000C9490000C9490000C9475020C94900019
:100040000C9490000C9490000C9490000C949000F0
:100050000C9490000C9490000C9490000C949000E0
:100060000C9490000C9490000C9490000C949000D0
:100070000C9490000C9490000C94E2000C9490006E
:100080000C9490000C9490000C9490005359533AA7
:1000900020535441525420776F726B696E67200A67
:1000A0000025640A0064203D202564202D20005591
:1000B000415254494E543A2067657420636F6D6D08
:1000C000616E64203D2025630A0055415254494E1B
:1000D000543A20676574206D657373616765200A03
:1000E000000011241FBECFEFD0E1DEBFCDBF15E071
:1000F000A0E0B1E0EEEEF2E100E00BBF02C007903D
:100100000D92A839B107D9F719E0A8E9B5E001C007
:100110001D92A73CB107E1F70E947C030C9475097E
:100120000C9400001F93182FF8948A3019F48DE076
:100130000E94920080919B0085FFFCCF10939C0051
:1001400078941F91089580919B0087FFFCCF809148
:100150009B0084FD07C080919B0083FD05C08091BA
:100160009C0008958EEF08958FEF0895DF92EF922F
:10017000FF920F931F93CF93DF93EC018B01DD244C
:1001800014C0C70101960E94920380E00E941504EA
:10019000C70125E0880F991F2A95E1F78C0F9D1F55
:1001A00060E270E00E947604D394ED2CFF24E01608
:1001B000F1063CF3DF91CF911F910F91FF90EF90EB
:1001C000DF9008951F920F920FB60F920BB60F9209
:1001D00011246F927F928F929F92AF92BF92CF9293
:1001E000DF92EF92FF920F931F932F933F934F93C2
:1001F0005F936F937F938F939F93AF93BF93EF938F
:10020000FF93DF93CF93CDB7DEB72897DEBFCDBF87
:1002100080919B0020919C008C7109F03AC12D3394
:1002200009F4E5C0263209F01BC18091BC078A326F
:1002300009F4E2C000D08AEC90E0ADB7BEB71296E8
:100240009C938E9311970E94A506EDEBF8E0BCEB12
:100250006B2EB7E07B2E6091BF097091C0090F90A3
:100260000F9080E090E0CC24AA24AE014F5F5F4F56
:10027000A5E0EA2EF12CEC0EFD1E20C0D3012D913D
:100280003D012C37B9F42C2D30E0882E8A188A01D4
:10029000020F131FD8018C922E0D3F1DD9018C9394
:1002A000282D30E02454374FAA94D901AC92C3943E
:1002B000AA2402C02083A39401963196861797073B
:1002C000E9F6BC2DB23021F589812A8190E0DC016C
:1002D000A454B74FED81F0E0E454F74F4081405310
:1002E000E22FF0E09F012354374F8F010454174F42
:1002F0006E8170E06454774FFB01508150538354FA
:10030000974F6C91D8010C91E52E0E94790669C037
:10031000BC2DB43009F06BC089816A810B81FC80EF
:1003200000D000D0ADB7BEB7119690E0FCEB6F2EB9
:10033000F8E07F2E680E791E2D8130E02454374F6F
:10034000F9014081405370E09B012354374FECEB9F
:10035000AE2EE8E0BE2EA60EB71E6E8170E064548D
:10036000774FFB01E080F0EDEF0E10E06DEBC62E55
:1003700068E0D62EC00ED11E5CEB852E58E0952E7F
:10038000800E911E0F8110E00454174FF801508128
:1003900050536F2D70E08B010354174FEDB7FEB72C
:1003A000128301836454774FFB01608112966C9332
:1003B0001297688570E06454774FFB016081605349
:1003C00013966C938354974FD3016C91F501008180
:1003D000D401AC90852E0E9438060F900F900F909C
:1003E0000F900E94B50468E070E00E94B600109281
:1003F000C0091092BF094DC000D000D0EDB7FEB7C4
:1004000031968FEA90E0ADB7BEB712969C938E936B
:1004100011978091BD07828313820E94A5060F90D9
:100420000F900F900F908091BD07833529F0843590
:1004300039F0823471F507C081E08093B80529C096
:100440001092B80526C08091BE07815490E0880FB5
:10045000991F8E719070806499600E94ED0319C09D
:100460008091BF099091C009B1E080309B0721F4D1
:100470001092C0091092BF098091BF099091C009E4
:10048000FC01E454F84F208301969093C0098093B7
:10049000BF092896DEBFCDBFCF91DF91FF91EF91CD
:1004A000BF91AF919F918F917F916F915F914F918C
:1004B0003F912F911F910F91FF90EF90DF90CF9080
:1004C000BF90AF909F908F907F906F900F900BBEDA
:1004D0000F900FBE0F901F90189524E02EBD89E15C
:1004E0009CE09DBD8CBD27BF08951F920F920FB653
:1004F0000F920BB60F9211242F933F934F935F935C
:100500006F937F938F939F93AF93BF93EF93FF93DB
:1005100086EA9FEF9DBD8CBD84E08EBD87BF21B173
:1005200024702093BE093091BB078091BC09909143
:10053000BD09321789F18730910518F100D000D03C
:10054000EDB7FEB7319685EA90E0ADB7BEB712962B
:100550009C938E931197328313820E94A50681EAA1
:1005600090E0EDB7FEB7928381838091BC099091B2
:10057000BD09948383830E94A5060F900F900F906E
:100580000F9081E090E09093BD098093BC09809129
:10059000BE098093BB0705C001969093BD09809367
:1005A000BC09FF91EF91BF91AF919F918F917F9186
:1005B0006F915F914F913F912F910F900BBE0F90D4
:1005C0000FBE0F901F9018951F920F920FB60F92AB
:1005D00011240F900FBE0F901F901895CF93DF93AB
:1005E000C0E0D0E02196CE010E94920380E00E94FC
:1005F000150488E995E060E270E00E947604C83056
:10060000D10581F7DF91CF91089580E091E090933B
:10061000C4098093C3099093C2098093C1091092C1
:100620009B0088E980939A0086E080939D00109259
:10063000980088E0809399007894089590919B00A9
:1006400097FFFCCF80919C009C71C1F70895909119
:100650009B0095FFFCCF80939C0008951BBA1ABAAB
:1006600018BA8DE187BB15BA14BA12BA11BA13B809
:1006700012B8109262001092610010926500109200
:10068000640010BE13BE12BE11BE1FBC1EBC1DBC3A
:100690001CBC17BC16BC1BBC1ABC19BC18BC1092E5
:1006A00079001092780015BC14BC13BC10928B001A
:1006B00010928A0010928900109288001092810096
:1006C0001092800010928700109286001092850090
:1006D00010928400109283001092820010926A009F
:1006E00083E08ABF80E189BF88BF17BE10927D007A
:1006F00080E888B910BC089500D08CE890E0EDB790
:10070000FEB7928381830E94A5060F900F900E94EE
:100710002E030E946D020E9405030E943B040E946A
:10072000EE02FFCF97FF0CC0C098000088E0C29A8D
:100730000000C29800008150D1F78FEF9FEF29C0D1
:10074000009771F4C09A000088E0C29A0000C29835
:1007500000008150D1F71092BA051092B9050895A2
:100760002091B9053091BA0528173907BCF4211535
:100770003105A1F04FEF2F3F340731F40FC0C29A7B
:100780000000C29800002F5F422F50E04817590721
:10079000B4F39093BA058093B9050895C09A000008
:1007A00028E0C29A0000C29800002150D1F7C098FA
:1007B0000000C29A0000C29800000000C09A000029
:1007C00041E005C0C29A0000C29800004F5F242F8C
:1007D00030E028173907B4F30895CF93DF93EC0185
:1007E000DF7080E090E00E94920300008FEF9FEFA7
:1007F0000E94920300002CE0C3980000CE0180709C
:100800009870CC0FDD1F009711F0C49A01C0C498F6
:100810000000C39A0000215079F780E090E00E9428
:1008200092030000DF91CF9108958F77C398000065
:10083000C49A0000C39A0000C3980000C498000046
:10084000C39A0000C3980000C49A0000C39A000035
:10085000C398000097E0C3980000282F2074880FE9
:10086000222311F0C49A01C0C4980000C39A00006A
:10087000915089F7089582E098E00E94ED0386E0A8
:1008800098E00E94ED0380E198E00E94ED0380E390
:1008900098E00E94ED0380E498E00E94ED0386E476
:1008A00099E00E94ED03089598E0C3980000282F76
:1008B0002078880F222311F0C49A01C0C498000048
:1008C000C39A0000915089F7089594E0C3980000FE
:1008D000282F21708695222311F0C49A01C0C49854
:1008E0000000C39A0000915089F7089540E015C0B8
:1008F000280F391FF901308128E0C3980000532FD9
:1009000051703695552311F0C49A01C0C498000067
:10091000C39A0000215089F74F5F242F30E026173B
:10092000370734F3089540E015C0280F391FF90147
:10093000308124E0C3980000532F51703695552321
:1009400011F0C49A01C0C4980000C39A000021505D
:1009500089F74F5F242F30E02617370734F30895C7
:10096000C3980000C39A0000FBCF8BE396E0089584
:10097000282F392FF90180E090E002C011920196F2
:1009800086179707DCF30895CF93DF93EBE3F7E047
:100990008BEB95E0CBE3D6E04BEB56E01192DC011C
:1009A0001D92CD011992DA011D92AD01B7E0EB3B2A
:1009B000FB07A1F7DF91CF9108958F929F92BF928D
:1009C000CF92DF92EF92FF920F931F93CF93DF931B
:1009D000213029F0223041F0E0E0F0E002C0E0E414
:1009E000F0E020E030E004C0E0E8F0E020E430E0B7
:1009F000E82EE7017E01F92E470180E090E0062F06
:100A000010E0C42EDD2451E0E52EF12CEC20FD2079
:100A100042E0C422DD2439C0E401A9914E01B0E0D6
:100A2000AA0FBB1FA856BC4F0D90BC91A02D1097CC
:100A300059F1BB24B39420C0E114F10451F0A90191
:100A4000455C584FBD016B0D711DEB016881EA01DA
:100A50006883C114D10451F0A90145545A4FBD0116
:100A60006B0D711DEB016881EA0168832F5F3F4FB9
:100A70002E173F0720F4B3944C914B15E8F62F5FE7
:100A80003F4F2E173F0720F401968017910720F261
:100A9000DF91CF911F910F91FF90EF90DF90CF905A
:100AA000BF909F908F9008958F929F92BF92CF9208
:100AB000DF92EF92FF920F931F93CF93DF9330E07B
:100AC000F9013197B5E0EE0FFF1FBA95E1F7A5E008
:100AD000220F331FAA95E1F7E82EE7017E01F92ED8
:100AE000470180E090E0062F10E0C42EDD2471E085
:100AF000E72EF12CEC20FD2042E0C422DD2437C09B
:100B0000E401A9914E01B0E0AA0FBB1FA856BC4F4B
:100B10000D90BC91A02D109749F1BB24B3941FC038
:100B2000E114F10451F0AF01455C584FBD016B0D6C
:100B3000711DEB016881EA016883C114D10451F091
:100B4000AF0145545A4FBD016B0D711DEB0168811A
:100B5000EA0168833196E217F30720F4B3944C91CD
:100B60004B15F0F63196E217F30720F40196801743
:100B7000910730F2DF91CF911F910F91FF90EF908D
:100B8000DF90CF90BF909F908F900895EBE3F7E0B8
:100B900080E090E02191DC01A55CB94F2C93019697
:100BA0008031910569F08033910581F0803991059C
:100BB00099F0803B910599F08035910599F002C03C
:100BC00080E290E08037910581F002C080E890E0FB
:100BD000803D910569F00EC080EA90E00BC080E492
:100BE00090E008C080E690E005C080EC90E002C094
:100BF00080EE90E027E0EB3BF20761F60895EBEB27
:100C0000F5E080E190E02191DC01A55CB94F2C93E7
:100C100001968032910569F08034910581F0803A27
:100C2000910599F0803C910599F08036910599F0F5
:100C300002C080E390E08038910581F002C080E935
:100C400090E0803E910569F00EC080EB90E00BC013
:100C500080E590E008C080E790E005C080ED90E07E
:100C600002C080EF90E026E0EB33F20761F60895D2
:100C70004F925F926F927F928F92AF92CF92DF925C
:100C8000EF920F93DF93CF9300D0CDB7DEB73C0147
:100C900029014A8369830E94C404C30169814A818E
:100CA00021E00E945405C201602F4E2D22E00E94D7
:100CB0005405C6016A2D482D23E00E9454058989F8
:100CC0009A896B894C8924E00E9454050E94C605CC
:100CD0000E94FF050F900F90CF91DF910F91EF9041
:100CE000DF90CF90AF908F907F906F905F904F90FC
:100CF0000895AF92BF92CF92DF92EF920F93DF935E
:100D0000CF9300D0CDB7DEB75C0169014A83698318
:100D10000E94C404C50169814A8121E00E94DD046A
:100D2000C601602F4E2D22E00E94DD040E94C60500
:100D30000E94FF050F900F90CF91DF910F91EF90E0
:100D4000DF90CF90BF90AF900895DF93CF93CDB752
:100D5000DEB7FE013596619171918091C309909142
:100D6000C409DC0113962C911397286013962C93D9
:100D7000AF010E94C506E091C309F091C409238127
:100D8000277F2383CF91DF9108952F923F924F9237
:100D90005F926F927F928F929F92AF92BF92CF920B
:100DA000DF92EF92FF920F931F93DF93CF93CDB714
:100DB000DEB72C970FB6F894DEBF0FBECDBF6C0127
:100DC0001B018A01FC0117821682838181FFD1C138
:100DD0002E010894411C511CF6019381F10193FDF1
:100DE000859193FF81911F01882309F4BEC185324B
:100DF00039F493FD859193FF81911F01853229F488
:100E000090E0B6010E94EB08E7CFEE24FF2420E03B
:100E10002032B0F48B3269F08C3228F4803251F0F9
:100E2000833271F40BC08D3239F0803349F4216084
:100E30002CC02260246029C0286027C0206125C002
:100E400027FD2CC0382F30533A3098F426FF08C0C5
:100E50008E2D880FE82EEE0CEE0CE80EE30E15C07A
:100E60008F2D880FF82EFF0CFF0CF80EF30E20626A
:100E70000CC08E3221F426FD78C1206406C08C3669
:100E800011F4206802C0883649F4F10193FD859180
:100E900093FF81911F01882309F0BACF982F9554B1
:100EA000933018F09052933028F40C5F1F4FFFE3FB
:100EB000F9830DC0833631F0833771F0833509F043
:100EC00060C022C0F801808189830E5F1F4F4201FC
:100ED00071E0A72EB12C16C062E0662E712C600E58
:100EE000711EF8018080918026FF03C06E2D70E096
:100EF00002C06FEF7FEFC4012C870E94E0085C0105
:100F000083012C852F7717C052E0652E712C600E5F
:100F1000711EF8018080918026FF03C06E2D70E065
:100F200002C06FEF7FEFC4012C870E94D5085C01DF
:100F30002C852068830123FD20C008C080E290E05A
:100F4000B6012C870E94EB08FA942C858F2D90E037
:100F5000A816B90698F311C0F40127FD859127FF63
:100F600081914F0190E0B6012C870E94EB082C85FF
:100F7000F110FA940894A108B108A114B10461F722
:100F8000F1C0843611F0893649F527FF08C0F80111
:100F900060817181828193810C5F1F4F09C0F801CC
:100FA00060817181882777FD8095982F0E5F1F4F94
:100FB0004FE6B42EB22297FF09C0909580957095A8
:100FC00061957F4F8F4F9F4FF0E8BF2AA2012AE023
:100FD00030E00E941709782E741845C0853731F427
:100FE0003FEEB32EB2222AE030E025C099EFB92EB1
:100FF000B2228F36C1F0803720F4883509F0B5C0B1
:101000000DC0803721F0883709F0AFC002C020E161
:10101000B22AB4FE0BC084E0B82A08C0B4FE09C0EE
:10102000E6E0BE2A06C028E030E005C020E130E05E
:1010300002C020E132E0B7FE08C0F8016081718192
:10104000828193810C5F1F4F07C0F801608171811D
:1010500080E090E00E5F1F4FA2010E941709782EDA
:101060007418FFE7BF22B6FE0BC02EEFB2227E142B
:1010700038F4B4FE07C0B2FC05C08FEEB82202C03F
:10108000A72C01C0AE2C8B2D90E0B4FE0DC0FE014C
:10109000E70DF11D2081203319F4E9EEBE2209C0CD
:1010A000A394B2FE06C004C086789070009709F041
:1010B000A3948B2C9924B3FC14C0B0FE0FC0AF14C2
:1010C00028F4E72CEF0CEA18AF2C08C0E72C06C078
:1010D00080E290E0B6010E94EB08A394AF14C0F345
:1010E00004C0AF1410F4FA1801C0FF2484FE0FC02E
:1010F00080E390E0B6010E94EB0882FE1FC081FEF3
:1011000003C088E590E010C088E790E00DC0C401FE
:1011100086789070009791F081FC02C080E201C057
:101120008BE2B7FC8DE290E0B6010E94EB0806C0AE
:1011300080E390E0B6010E94EB08EA947E14C0F3CD
:101140007A94F201E70DF11D808190E0B6010E94D2
:10115000EB087720A9F706C080E290E0B6010E9474
:10116000EB08FA94FF20C1F737CEF60126813781CC
:1011700002C02FEF3FEFC9012C960FB6F894DEBFE7
:101180000FBECDBFCF91DF911F910F91FF90EF90D8
:10119000DF90CF90BF90AF909F908F907F906F9097
:1011A0005F904F903F902F900895FC010590615003
:1011B00070400110D8F7809590958E0F9F1F08956D
:1011C000FC016150704001900110D8F78095909516
:1011D0008E0F9F1F08950F931F93CF93DF938C0162
:1011E000EB018B8181FF1BC082FF0DC02E813F81EF
:1011F0008C819D812817390764F4E881F981019376
:10120000F983E88306C0E885F985802F0995009762
:1012100031F48E819F8101969F838E8302C00FEFF0
:101220001FEFC801DF91CF911F910F910895FA012F
:10123000AA27283051F1203181F1E8946F936E7F15
:101240006E5F7F4F8F4F9F4FAF4FB1E03ED0B4E006
:101250003CD0670F781F891F9A1FA11D680F791F47
:101260008A1F911DA11D6A0F711D811D911DA11D58
:1012700020D009F468943F912AE0269F1124301968
:10128000305D3193DEF6CF010895462F4770405D03
:101290004193B3E00FD0C9F7F6CF462F4F70405DB2
:1012A0004A3318F0495D31FD4052419302D0A9F70D
:1012B000EACFB4E0A6959795879577956795BA9507
:1012C000C9F700976105710508959B01AC010A2ECD
:1012D00006945795479537952795BA95C9F7620FA4
:0E12E000731F841F951FA01D0895F894FFCF63
:1012EE0000000003000000009200A300000005783B
:1012FE0014121478057E4A4A4C30053C4242422470
:10130E00057E4242423C047E4A4A42047E1212024A
:10131E00053C42525234047E10107E03427E42043B
:10132E0020423E02047E081462047E404060057E28
:10133E000810087E057E0810207E053C4242423C85
:10134E00047E12120C053C4252225C047E12324C78
:10135E0005244A5252240506027E0206053E4040EE
:10136E00403E051E2040201E053E403C403E05628C
:10137E0014081462050E1060100E0562524A4642A1
:10138E000420545478037C50600338442803605082
:10139E007C0338544C04107814040410A8A870036D
:1013AE007C106001740320403C037C106C017C05B2
:1013BE007C04780478037C047803384438037C1466
:1013CE000C0438442458037C04180348542403089E
:1013DE003C48033C403C031C601C053C4038403CF0
:1013EE00046C106C00034C503C0364544C05781490
:1013FE00121478047E4A4A32057E4A4A4C30047EE4
:10140E0002020605603E223E60057E4A4A42000503
:10141E0076087E08760524424A4A34057E20100856
:10142E007E057E2012087E047E08146205403E0270
:10143E00027E057E0810087E047E08087E053C426A
:10144E0042423C047E02027E047E12120C053C4295
:10145E004242240506027E0206042648483E05182E
:10146E00247E2418056214081462057E40407EC056
:10147E00040E10107E057E4078407E067E40784039
:10148E007EC005027E484830067E484830007E0405
:10149E007E4848300524424A4A3C067E103C424271
:1014AE003C044C32127E0420545478037C54640362
:1014BE007C546C037C040405603E223E6003385469
:1014CE004C0544287C28440428445428047C2010CD
:1014DE007C047C20107C037C106C044038047C055A
:1014EE007C0870087C037C107C03384438037C0431
:1014FE0078037C140C0338442803047C04034C50FA
:10150E003C0510287C2810036C106C047C407CC0B9
:10151E00030C107C057C4070407C067C4070407C47
:10152E00C004047C5060057C5060007C037C5060DD
:10153E000428445438057C10384438045C247C005C
:10154E00020000012802700E0140043C42423C029F
:10155E00047E044462524C0424424A34040E0808A9
:10156E007E044E4A4A32043C4A4A320402720A0649
:10157E0004344A4A34044C52523C0000000000002D
:10158E00000000000000000000000000000000004D
:10159E00000000000000000000000000000000003D
:1015AE00000000000000000000000000000000002D
:1015BE0000000000000000006003000000000000BA
:1015CE00000000000000000000000000000000000D
:1015DE0000000000680365036A036F03720377035C
:1015EE007C03810386038B03900395036303000042
:1015FE00000000000000000000000E0114011A019E
:10160E00200126012B01300136013B013F0144012F
:10161E0049014E0154015A01600165016B017001CF
:10162E0076017C01820188018E0194019A010000ED
:10163E0000000000000000000000A001A501A901AB
:10164E00AD01B101B501BA01BF01C301C501C901A7
:10165E00CD01CF01D501D901DD01E101E601EA019C
:10166E00EE01F201F601FA01000205020902000084
:10167E00000000000000000000000000000000005C
:10168E00000000000000000000000000000000004C
:10169E00000000000000000000000000000000003C
:1016AE00000000000000000000000000000000002C
:1016BE00000000000000000000000000000000001C
:1016CE00000000000000000000000000000000000C
:1016DE0000000000000000000000000000000000FC
:1016EE0000000000000000000000000000000000EC
:1016FE0000000000000000000D02130218021E027E
:10170E00230229022F0235023B02410247024C02FC
:10171E00520258025D02630268026D027302790280
:10172E007E0284028A02900295029B02A202A80205
:10173E00AF02B402BA02C102C602CB02CF02D3027A
:10174E00D702DD02E102E702EC02F102F602FA0232
:10175E00FF02050309030D031103150319031D03EE
:10176E00210327032B03300334033A0341034603BB
:08177E004C03500355035B030B
:00000001FF
